{
  "contractName": "RealEstate",
  "abi": [
    {
      "inputs": [],
      "payable": false,
      "stateMutability": "nonpayable",
      "type": "constructor"
    },
    {
      "constant": true,
      "inputs": [],
      "name": "buyer",
      "outputs": [
        {
          "internalType": "address",
          "name": "",
          "type": "address"
        }
      ],
      "payable": false,
      "stateMutability": "view",
      "type": "function"
    },
    {
      "constant": true,
      "inputs": [],
      "name": "price",
      "outputs": [
        {
          "internalType": "uint256",
          "name": "",
          "type": "uint256"
        }
      ],
      "payable": false,
      "stateMutability": "view",
      "type": "function"
    },
    {
      "constant": true,
      "inputs": [],
      "name": "seller",
      "outputs": [
        {
          "internalType": "address payable",
          "name": "",
          "type": "address"
        }
      ],
      "payable": false,
      "stateMutability": "view",
      "type": "function"
    },
    {
      "constant": true,
      "inputs": [],
      "name": "streetAddress",
      "outputs": [
        {
          "internalType": "string",
          "name": "",
          "type": "string"
        }
      ],
      "payable": false,
      "stateMutability": "view",
      "type": "function"
    },
    {
      "constant": false,
      "inputs": [],
      "name": "buyHouse",
      "outputs": [],
      "payable": true,
      "stateMutability": "payable",
      "type": "function"
    }
  ],
  "bytecode": "0x608060405234801561001057600080fd5b50336000806101000a81548173ffffffffffffffffffffffffffffffffffffffff021916908373ffffffffffffffffffffffffffffffffffffffff1602179055506040518060400160405280601f81526020017f33353020357468204176652c204e657720596f726b2c204e59203130313138008152506002908051906020019061009c9291906100fe565b506040518060400160405280602081526020017f3464313836333231633161376630663335346232393765383931346162323430815250600390805190602001906100e89291906100fe565b5068055de6a779bbac00006004819055506101a3565b828054600181600116156101000203166002900490600052602060002090601f016020900481019282601f1061013f57805160ff191683800117855561016d565b8280016001018555821561016d579182015b8281111561016c578251825591602001919060010190610151565b5b50905061017a919061017e565b5090565b6101a091905b8082111561019c576000816000905550600101610184565b5090565b90565b6104af806101b26000396000f3fe60806040526004361061004a5760003560e01c806308551a531461004f57806347d90576146100a65780637150d8ae14610136578063a035b1fe1461018d578063d1119664146101b8575b600080fd5b34801561005b57600080fd5b506100646101c2565b604051808273ffffffffffffffffffffffffffffffffffffffff1673ffffffffffffffffffffffffffffffffffffffff16815260200191505060405180910390f35b3480156100b257600080fd5b506100bb6101e7565b6040518080602001828103825283818151815260200191508051906020019080838360005b838110156100fb5780820151818401526020810190506100e0565b50505050905090810190601f1680156101285780820380516001836020036101000a031916815260200191505b509250505060405180910390f35b34801561014257600080fd5b5061014b610285565b604051808273ffffffffffffffffffffffffffffffffffffffff1673ffffffffffffffffffffffffffffffffffffffff16815260200191505060405180910390f35b34801561019957600080fd5b506101a26102ab565b6040518082815260200191505060405180910390f35b6101c06102b1565b005b6000809054906101000a900473ffffffffffffffffffffffffffffffffffffffff1681565b60028054600181600116156101000203166002900480601f01602080910402602001604051908101604052809291908181526020018280546001816001161561010002031660029004801561027d5780601f106102525761010080835404028352916020019161027d565b820191906000526020600020905b81548152906001019060200180831161026057829003601f168201915b505050505081565b600160009054906101000a900473ffffffffffffffffffffffffffffffffffffffff1681565b60045481565b600073ffffffffffffffffffffffffffffffffffffffff166000809054906101000a900473ffffffffffffffffffffffffffffffffffffffff1673ffffffffffffffffffffffffffffffffffffffff16141561030c57600080fd5b600073ffffffffffffffffffffffffffffffffffffffff16600160009054906101000a900473ffffffffffffffffffffffffffffffffffffffff1673ffffffffffffffffffffffffffffffffffffffff161461036757600080fd5b6000809054906101000a900473ffffffffffffffffffffffffffffffffffffffff1673ffffffffffffffffffffffffffffffffffffffff163373ffffffffffffffffffffffffffffffffffffffff1614156103c157600080fd5b60045434146103cf57600080fd5b33600160006101000a81548173ffffffffffffffffffffffffffffffffffffffff021916908373ffffffffffffffffffffffffffffffffffffffff1602179055506000809054906101000a900473ffffffffffffffffffffffffffffffffffffffff1673ffffffffffffffffffffffffffffffffffffffff166108fc349081150290604051600060405180830381858888f19350505050158015610477573d6000803e3d6000fd5b5056fea265627a7a72315820ee25fd524b0581564a9354f923cedb68798a60dcfdbb684971dd03413a1312bd64736f6c63430005100032",
  "source": "pragma solidity ^0.5.16;\n\ncontract RealEstate {\n\n\t// Declared variables\n\taddress payable public seller;\n\taddress public buyer;\n\tstring public streetAddress;\n\tstring title;\n\tuint256 public price;\n\n\tconstructor () public {\n\n\t\t// Who is the seller?\n\t\tseller = msg.sender;\n\t\t// What is the street address?\n\t\tstreetAddress = \"350 5th Ave, New York, NY 10118\";\n\t\t// What is the title?\n\t\ttitle = \"4d186321c1a7f0f354b297e8914ab240\";\n\t\t// What is the price?\n\t\tprice = 99000000000000000000; // 99 ETH\n\n\t}\n\n\tfunction buyHouse () payable public {\n\n\t\t// The seller is present\n\t\trequire(seller != address(0));\n\n\t\t// The buyer is not set yet\n\t\trequire(buyer == address(0));\n\n\t\t// The buyer is not the seller (I'm not buying my own house)\n\t\trequire(msg.sender != seller);\n\n\t\t// The amount we are paying for the house is the exact price\n\t\trequire(msg.value == price);\n\n\t\t// Set the buyer\n\t\tbuyer = msg.sender;\n\n\t\t// Send ETH to the seller\n\t\tseller.transfer(msg.value);\n\n\t}\n\n}",
  "sourcePath": "/home/mfalcone/Blockchain/RealEstate/contracts/RealEstate.sol",
  "compiler": {
    "name": "solc",
    "version": "0.5.16+commit.9c3226ce.Emscripten.clang"
  },
  "schemaVersion": "3.0.23",
  "updatedAt": "2020-05-10T09:25:35.392Z",
  "networkType": "ethereum",
  "devdoc": {
    "methods": {}
  },
  "userdoc": {
    "methods": {}
  }
}